{
  "_format": "hh-sol-artifact-1",
  "contractName": "ElectoralCommission",
  "sourceName": "contracts/ElectoralCommission.sol",
  "abi": [
    {
      "inputs": [],
      "stateMutability": "nonpayable",
      "type": "constructor"
    },
    {
      "anonymous": false,
      "inputs": [
        {
          "indexed": false,
          "internalType": "uint256",
          "name": "electionId",
          "type": "uint256"
        },
        {
          "components": [
            {
              "internalType": "uint256",
              "name": "id",
              "type": "uint256"
            },
            {
              "internalType": "string",
              "name": "name",
              "type": "string"
            },
            {
              "internalType": "uint256",
              "name": "voteCount",
              "type": "uint256"
            }
          ],
          "indexed": false,
          "internalType": "struct Candidate",
          "name": "candidate",
          "type": "tuple"
        }
      ],
      "name": "CandidateAddedEvent",
      "type": "event"
    },
    {
      "anonymous": false,
      "inputs": [
        {
          "indexed": false,
          "internalType": "uint256",
          "name": "electionId",
          "type": "uint256"
        }
      ],
      "name": "ElectionCreatedEvent",
      "type": "event"
    },
    {
      "anonymous": false,
      "inputs": [
        {
          "indexed": false,
          "internalType": "uint256",
          "name": "electionId",
          "type": "uint256"
        },
        {
          "components": [
            {
              "internalType": "uint256",
              "name": "id",
              "type": "uint256"
            },
            {
              "internalType": "string",
              "name": "name",
              "type": "string"
            },
            {
              "internalType": "uint256",
              "name": "voteCount",
              "type": "uint256"
            }
          ],
          "indexed": false,
          "internalType": "struct Candidate",
          "name": "candidate",
          "type": "tuple"
        }
      ],
      "name": "VotedEvent",
      "type": "event"
    },
    {
      "inputs": [],
      "name": "candidateCounter",
      "outputs": [
        {
          "internalType": "uint256",
          "name": "",
          "type": "uint256"
        }
      ],
      "stateMutability": "view",
      "type": "function"
    },
    {
      "inputs": [
        {
          "internalType": "uint256",
          "name": "",
          "type": "uint256"
        },
        {
          "internalType": "uint256",
          "name": "",
          "type": "uint256"
        }
      ],
      "name": "candidateIds",
      "outputs": [
        {
          "internalType": "uint256",
          "name": "",
          "type": "uint256"
        }
      ],
      "stateMutability": "view",
      "type": "function"
    },
    {
      "inputs": [
        {
          "internalType": "uint256",
          "name": "",
          "type": "uint256"
        },
        {
          "internalType": "uint256",
          "name": "",
          "type": "uint256"
        }
      ],
      "name": "candidates",
      "outputs": [
        {
          "internalType": "uint256",
          "name": "id",
          "type": "uint256"
        },
        {
          "internalType": "string",
          "name": "name",
          "type": "string"
        },
        {
          "internalType": "uint256",
          "name": "voteCount",
          "type": "uint256"
        }
      ],
      "stateMutability": "view",
      "type": "function"
    },
    {
      "inputs": [
        {
          "internalType": "string",
          "name": "_name",
          "type": "string"
        },
        {
          "internalType": "string",
          "name": "_postName",
          "type": "string"
        },
        {
          "internalType": "uint256",
          "name": "_startDate",
          "type": "uint256"
        },
        {
          "internalType": "uint256",
          "name": "_endDate",
          "type": "uint256"
        },
        {
          "components": [
            {
              "internalType": "uint256",
              "name": "id",
              "type": "uint256"
            },
            {
              "internalType": "string",
              "name": "name",
              "type": "string"
            },
            {
              "internalType": "uint256",
              "name": "voteCount",
              "type": "uint256"
            }
          ],
          "internalType": "struct Candidate[]",
          "name": "_candidates",
          "type": "tuple[]"
        }
      ],
      "name": "createElection",
      "outputs": [],
      "stateMutability": "nonpayable",
      "type": "function"
    },
    {
      "inputs": [],
      "name": "electionCounter",
      "outputs": [
        {
          "internalType": "uint256",
          "name": "",
          "type": "uint256"
        }
      ],
      "stateMutability": "view",
      "type": "function"
    },
    {
      "inputs": [
        {
          "internalType": "uint256",
          "name": "",
          "type": "uint256"
        }
      ],
      "name": "electionIds",
      "outputs": [
        {
          "internalType": "uint256",
          "name": "",
          "type": "uint256"
        }
      ],
      "stateMutability": "view",
      "type": "function"
    },
    {
      "inputs": [
        {
          "internalType": "uint256",
          "name": "",
          "type": "uint256"
        }
      ],
      "name": "elections",
      "outputs": [
        {
          "internalType": "uint256",
          "name": "id",
          "type": "uint256"
        },
        {
          "internalType": "address",
          "name": "owner",
          "type": "address"
        },
        {
          "internalType": "string",
          "name": "name",
          "type": "string"
        },
        {
          "internalType": "string",
          "name": "postName",
          "type": "string"
        },
        {
          "internalType": "uint256",
          "name": "startDate",
          "type": "uint256"
        },
        {
          "internalType": "uint256",
          "name": "endDate",
          "type": "uint256"
        },
        {
          "internalType": "uint256",
          "name": "votesCast",
          "type": "uint256"
        }
      ],
      "stateMutability": "view",
      "type": "function"
    },
    {
      "inputs": [
        {
          "internalType": "uint256",
          "name": "electionId",
          "type": "uint256"
        }
      ],
      "name": "getElectionCandidates",
      "outputs": [
        {
          "components": [
            {
              "internalType": "uint256",
              "name": "id",
              "type": "uint256"
            },
            {
              "internalType": "string",
              "name": "name",
              "type": "string"
            },
            {
              "internalType": "uint256",
              "name": "voteCount",
              "type": "uint256"
            }
          ],
          "internalType": "struct Candidate[]",
          "name": "",
          "type": "tuple[]"
        }
      ],
      "stateMutability": "view",
      "type": "function"
    },
    {
      "inputs": [],
      "name": "getElections",
      "outputs": [
        {
          "components": [
            {
              "internalType": "uint256",
              "name": "id",
              "type": "uint256"
            },
            {
              "internalType": "address",
              "name": "owner",
              "type": "address"
            },
            {
              "internalType": "string",
              "name": "name",
              "type": "string"
            },
            {
              "internalType": "string",
              "name": "postName",
              "type": "string"
            },
            {
              "internalType": "uint256",
              "name": "startDate",
              "type": "uint256"
            },
            {
              "internalType": "uint256",
              "name": "endDate",
              "type": "uint256"
            },
            {
              "internalType": "uint256",
              "name": "votesCast",
              "type": "uint256"
            }
          ],
          "internalType": "struct Election[]",
          "name": "",
          "type": "tuple[]"
        }
      ],
      "stateMutability": "view",
      "type": "function"
    },
    {
      "inputs": [],
      "name": "owner",
      "outputs": [
        {
          "internalType": "address",
          "name": "",
          "type": "address"
        }
      ],
      "stateMutability": "view",
      "type": "function"
    },
    {
      "inputs": [
        {
          "internalType": "uint256",
          "name": "_electionId",
          "type": "uint256"
        },
        {
          "internalType": "uint256",
          "name": "_candidateId",
          "type": "uint256"
        }
      ],
      "name": "vote",
      "outputs": [],
      "stateMutability": "nonpayable",
      "type": "function"
    }
  ],
  "bytecode": "0x608060405234801561001057600080fd5b50336000806101000a81548173ffffffffffffffffffffffffffffffffffffffff021916908373ffffffffffffffffffffffffffffffffffffffff16021790555061262f806100606000396000f3fe608060405234801561001057600080fd5b50600436106100a95760003560e01c80637de14242116100715780637de14242146101805780638da5cb5b146101b2578063922f287d146101d05780639f3a7f52146101ec578063b384abef1461020a578063f497d15f14610226576100a9565b806302330a61146100ae5780633bc990db146100de5780635e12845e146100fc5780635e6fef011461012c57806361e3741714610162575b600080fd5b6100c860048036038101906100c39190611344565b610256565b6040516100d59190611380565b60405180910390f35b6100e661027a565b6040516100f39190611380565b60405180910390f35b61011660048036038101906101119190611344565b610280565b604051610123919061154c565b60405180910390f35b61014660048036038101906101419190611344565b610398565b60405161015997969594939291906115f9565b60405180910390f35b61016a61050a565b6040516101779190611380565b60405180910390f35b61019a60048036038101906101959190611676565b610510565b6040516101a9939291906116b6565b60405180910390f35b6101ba6105df565b6040516101c791906116f4565b60405180910390f35b6101ea60048036038101906101e591906119b4565b610603565b005b6101f461085a565b6040516102019190611bf7565b60405180910390f35b610224600480360381019061021f9190611676565b610add565b005b610240600480360381019061023b9190611676565b610f02565b60405161024d9190611380565b60405180910390f35b6004818154811061026657600080fd5b906000526020600020016000915090505481565b60025481565b606060056000838152602001908152602001600020805480602002602001604051908101604052809291908181526020016000905b8282101561038d5783829060005260206000209060030201604051806060016040529081600082015481526020016001820180546102f290611c48565b80601f016020809104026020016040519081016040528092919081815260200182805461031e90611c48565b801561036b5780601f106103405761010080835404028352916020019161036b565b820191906000526020600020905b81548152906001019060200180831161034e57829003601f168201915b50505050508152602001600282015481525050815260200190600101906102b5565b505050509050919050565b60036020528060005260406000206000915090508060000154908060010160009054906101000a900473ffffffffffffffffffffffffffffffffffffffff16908060020180546103e790611c48565b80601f016020809104026020016040519081016040528092919081815260200182805461041390611c48565b80156104605780601f1061043557610100808354040283529160200191610460565b820191906000526020600020905b81548152906001019060200180831161044357829003601f168201915b50505050509080600301805461047590611c48565b80601f01602080910402602001604051908101604052809291908181526020018280546104a190611c48565b80156104ee5780601f106104c3576101008083540402835291602001916104ee565b820191906000526020600020905b8154815290600101906020018083116104d157829003601f168201915b5050505050908060040154908060050154908060060154905087565b60015481565b6005602052816000526040600020818154811061052c57600080fd5b90600052602060002090600302016000915091505080600001549080600101805461055690611c48565b80601f016020809104026020016040519081016040528092919081815260200182805461058290611c48565b80156105cf5780601f106105a4576101008083540402835291602001916105cf565b820191906000526020600020905b8154815290600101906020018083116105b257829003601f168201915b5050505050908060020154905083565b60008054906101000a900473ffffffffffffffffffffffffffffffffffffffff1681565b428311610645576040517f08c379a000000000000000000000000000000000000000000000000000000000815260040161063c90611ceb565b60405180910390fd5b428211610687576040517f08c379a000000000000000000000000000000000000000000000000000000000815260040161067e90611d7d565b60405180910390fd5b8282116106c9576040517f08c379a00000000000000000000000000000000000000000000000000000000081526004016106c090611e0f565b60405180910390fd5b600181511161070d576040517f08c379a000000000000000000000000000000000000000000000000000000000815260040161070490611ea1565b60405180910390fd5b6001600081548092919061072090611ef0565b91905055506000600360006001548152602001908152602001600020905060015481600001819055508581600201908161075a91906120e4565b508481600301908161076c91906120e4565b50838160040181905550828160050181905550338160010160006101000a81548173ffffffffffffffffffffffffffffffffffffffff021916908373ffffffffffffffffffffffffffffffffffffffff160217905550600460015490806001815401808255809150506001900390600052602060002001600090919091909150557f2fd9465a7f1361d6f4cdc1e2aacd0eda587013b48b162dcdb86e2be56a68a6a160015460405161081e9190611380565b60405180910390a160005b82518110156108515761083e60015488610f33565b808061084990611ef0565b915050610829565b50505050505050565b6060600060015467ffffffffffffffff81111561087a57610879611719565b5b6040519080825280602002602001820160405280156108b357816020015b6108a06112a7565b8152602001906001900390816108985790505b50905060005b600480549050811015610ad55760036000600483815481106108de576108dd6121b6565b5b906000526020600020015481526020019081526020016000206040518060e0016040529081600082015481526020016001820160009054906101000a900473ffffffffffffffffffffffffffffffffffffffff1673ffffffffffffffffffffffffffffffffffffffff1673ffffffffffffffffffffffffffffffffffffffff16815260200160028201805461097290611c48565b80601f016020809104026020016040519081016040528092919081815260200182805461099e90611c48565b80156109eb5780601f106109c0576101008083540402835291602001916109eb565b820191906000526020600020905b8154815290600101906020018083116109ce57829003601f168201915b50505050508152602001600382018054610a0490611c48565b80601f0160208091040260200160405190810160405280929190818152602001828054610a3090611c48565b8015610a7d5780601f10610a5257610100808354040283529160200191610a7d565b820191906000526020600020905b815481529060010190602001808311610a6057829003601f168201915b505050505081526020016004820154815260200160058201548152602001600682015481525050828281518110610ab757610ab66121b6565b5b60200260200101819052508080610acd90611ef0565b9150506108b9565b508091505090565b6000600360008481526020019081526020016000206040518060e0016040529081600082015481526020016001820160009054906101000a900473ffffffffffffffffffffffffffffffffffffffff1673ffffffffffffffffffffffffffffffffffffffff1673ffffffffffffffffffffffffffffffffffffffff168152602001600282018054610b6d90611c48565b80601f0160208091040260200160405190810160405280929190818152602001828054610b9990611c48565b8015610be65780601f10610bbb57610100808354040283529160200191610be6565b820191906000526020600020905b815481529060010190602001808311610bc957829003601f168201915b50505050508152602001600382018054610bff90611c48565b80601f0160208091040260200160405190810160405280929190818152602001828054610c2b90611c48565b8015610c785780601f10610c4d57610100808354040283529160200191610c78565b820191906000526020600020905b815481529060010190602001808311610c5b57829003601f168201915b50505050508152602001600482015481526020016005820154815260200160068201548152505090506000600560008581526020019081526020016000209050816080015142118015610cce57508160a0015142105b610d0d576040517f08c379a0000000000000000000000000000000000000000000000000000000008152600401610d0490612257565b60405180910390fd5b600015156007600086815260200190815260200160002060003373ffffffffffffffffffffffffffffffffffffffff1673ffffffffffffffffffffffffffffffffffffffff16815260200190815260200160002060009054906101000a900460ff16151514610db1576040517f08c379a0000000000000000000000000000000000000000000000000000000008152600401610da8906122e9565b60405180910390fd5b60005b8180549050811015610efb5783828281548110610dd457610dd36121b6565b5b90600052602060002090600302016000015403610ee857818181548110610dfe57610dfd6121b6565b5b90600052602060002090600302016002016000815480929190610e2090611ef0565b919050555060016007600087815260200190815260200160002060003373ffffffffffffffffffffffffffffffffffffffff1673ffffffffffffffffffffffffffffffffffffffff16815260200190815260200160002060006101000a81548160ff0219169083151502179055507f216b0823ff33c241b868bb4db66f305a739ec6caabfb47a09f02574aff6b416a85838381548110610ec357610ec26121b6565b5b9060005260206000209060030201604051610edf929190612425565b60405180910390a15b8080610ef390611ef0565b915050610db4565b5050505050565b60066020528160005260406000208181548110610f1e57600080fd5b90600052602060002001600091509150505481565b6000600360008481526020019081526020016000206040518060e0016040529081600082015481526020016001820160009054906101000a900473ffffffffffffffffffffffffffffffffffffffff1673ffffffffffffffffffffffffffffffffffffffff1673ffffffffffffffffffffffffffffffffffffffff168152602001600282018054610fc390611c48565b80601f0160208091040260200160405190810160405280929190818152602001828054610fef90611c48565b801561103c5780601f106110115761010080835404028352916020019161103c565b820191906000526020600020905b81548152906001019060200180831161101f57829003601f168201915b5050505050815260200160038201805461105590611c48565b80601f016020809104026020016040519081016040528092919081815260200182805461108190611c48565b80156110ce5780601f106110a3576101008083540402835291602001916110ce565b820191906000526020600020905b8154815290600101906020018083116110b157829003601f168201915b50505050508152602001600482015481526020016005820154815260200160068201548152505090508060800151421061113d576040517f08c379a0000000000000000000000000000000000000000000000000000000008152600401611134906124c7565b60405180910390fd5b8060a001514210611183576040517f08c379a000000000000000000000000000000000000000000000000000000000815260040161117a90612559565b60405180910390fd5b6002600081548092919061119690611ef0565b91905055506000600560008581526020019081526020016000209050600060405180606001604052806002548152602001858152602001600081525090508181908060018154018082558091505060019003906000526020600020906003020160009091909190915060008201518160000155602082015181600101908161121e91906120e4565b506040820151816002015550506006600086815260200190815260200160002060025490806001815401808255809150506001900390600052602060002001600090919091909150557f5ca0d74d8e1ba50afeae4f9e6ba75fb719e993b9d3c9237d71775d7a692ec9fb85826040516112989291906125c9565b60405180910390a15050505050565b6040518060e0016040528060008152602001600073ffffffffffffffffffffffffffffffffffffffff16815260200160608152602001606081526020016000815260200160008152602001600081525090565b6000604051905090565b600080fd5b600080fd5b6000819050919050565b6113218161130e565b811461132c57600080fd5b50565b60008135905061133e81611318565b92915050565b60006020828403121561135a57611359611304565b5b60006113688482850161132f565b91505092915050565b61137a8161130e565b82525050565b60006020820190506113956000830184611371565b92915050565b600081519050919050565b600082825260208201905092915050565b6000819050602082019050919050565b6113d08161130e565b82525050565b600081519050919050565b600082825260208201905092915050565b60005b838110156114105780820151818401526020810190506113f5565b60008484015250505050565b6000601f19601f8301169050919050565b6000611438826113d6565b61144281856113e1565b93506114528185602086016113f2565b61145b8161141c565b840191505092915050565b600060608301600083015161147e60008601826113c7565b5060208301518482036020860152611496828261142d565b91505060408301516114ab60408601826113c7565b508091505092915050565b60006114c28383611466565b905092915050565b6000602082019050919050565b60006114e28261139b565b6114ec81856113a6565b9350836020820285016114fe856113b7565b8060005b8581101561153a578484038952815161151b85826114b6565b9450611526836114ca565b925060208a01995050600181019050611502565b50829750879550505050505092915050565b6000602082019050818103600083015261156681846114d7565b905092915050565b600073ffffffffffffffffffffffffffffffffffffffff82169050919050565b60006115998261156e565b9050919050565b6115a98161158e565b82525050565b600082825260208201905092915050565b60006115cb826113d6565b6115d581856115af565b93506115e58185602086016113f2565b6115ee8161141c565b840191505092915050565b600060e08201905061160e600083018a611371565b61161b60208301896115a0565b818103604083015261162d81886115c0565b9050818103606083015261164181876115c0565b90506116506080830186611371565b61165d60a0830185611371565b61166a60c0830184611371565b98975050505050505050565b6000806040838503121561168d5761168c611304565b5b600061169b8582860161132f565b92505060206116ac8582860161132f565b9150509250929050565b60006060820190506116cb6000830186611371565b81810360208301526116dd81856115c0565b90506116ec6040830184611371565b949350505050565b600060208201905061170960008301846115a0565b92915050565b600080fd5b600080fd5b7f4e487b7100000000000000000000000000000000000000000000000000000000600052604160045260246000fd5b6117518261141c565b810181811067ffffffffffffffff821117156117705761176f611719565b5b80604052505050565b60006117836112fa565b905061178f8282611748565b919050565b600067ffffffffffffffff8211156117af576117ae611719565b5b6117b88261141c565b9050602081019050919050565b82818337600083830152505050565b60006117e76117e284611794565b611779565b90508281526020810184848401111561180357611802611714565b5b61180e8482856117c5565b509392505050565b600082601f83011261182b5761182a61170f565b5b813561183b8482602086016117d4565b91505092915050565b600067ffffffffffffffff82111561185f5761185e611719565b5b602082029050602081019050919050565b600080fd5b600080fd5b600080fd5b60006060828403121561189557611894611875565b5b61189f6060611779565b905060006118af8482850161132f565b600083015250602082013567ffffffffffffffff8111156118d3576118d261187a565b5b6118df84828501611816565b60208301525060406118f38482850161132f565b60408301525092915050565b600061191261190d84611844565b611779565b9050808382526020820190506020840283018581111561193557611934611870565b5b835b8181101561197c57803567ffffffffffffffff81111561195a5761195961170f565b5b808601611967898261187f565b85526020850194505050602081019050611937565b5050509392505050565b600082601f83011261199b5761199a61170f565b5b81356119ab8482602086016118ff565b91505092915050565b600080600080600060a086880312156119d0576119cf611304565b5b600086013567ffffffffffffffff8111156119ee576119ed611309565b5b6119fa88828901611816565b955050602086013567ffffffffffffffff811115611a1b57611a1a611309565b5b611a2788828901611816565b9450506040611a388882890161132f565b9350506060611a498882890161132f565b925050608086013567ffffffffffffffff811115611a6a57611a69611309565b5b611a7688828901611986565b9150509295509295909350565b600081519050919050565b600082825260208201905092915050565b6000819050602082019050919050565b611ab88161158e565b82525050565b600060e083016000830151611ad660008601826113c7565b506020830151611ae96020860182611aaf565b5060408301518482036040860152611b01828261142d565b91505060608301518482036060860152611b1b828261142d565b9150506080830151611b3060808601826113c7565b5060a0830151611b4360a08601826113c7565b5060c0830151611b5660c08601826113c7565b508091505092915050565b6000611b6d8383611abe565b905092915050565b6000602082019050919050565b6000611b8d82611a83565b611b978185611a8e565b935083602082028501611ba985611a9f565b8060005b85811015611be55784840389528151611bc68582611b61565b9450611bd183611b75565b925060208a01995050600181019050611bad565b50829750879550505050505092915050565b60006020820190508181036000830152611c118184611b82565b905092915050565b7f4e487b7100000000000000000000000000000000000000000000000000000000600052602260045260246000fd5b60006002820490506001821680611c6057607f821691505b602082108103611c7357611c72611c19565b5b50919050565b7f456c656374696f6e207374617274696e672064617465206d757374206265206960008201527f6e20746865206675747572650000000000000000000000000000000000000000602082015250565b6000611cd5602c836115af565b9150611ce082611c79565b604082019050919050565b60006020820190508181036000830152611d0481611cc8565b9050919050565b7f456c656374696f6e20656e64696e672064617465206d75737420626520696e2060008201527f7468652066757475726500000000000000000000000000000000000000000000602082015250565b6000611d67602a836115af565b9150611d7282611d0b565b604082019050919050565b60006020820190508181036000830152611d9681611d5a565b9050919050565b7f456c656374696f6e20656e64696e672064617465206d757374206265206c617460008201527f6572207468616e207374617274696e6720646174650000000000000000000000602082015250565b6000611df96035836115af565b9150611e0482611d9d565b604082019050919050565b60006020820190508181036000830152611e2881611dec565b9050919050565b7f456c656374696f6e206d7573742068617665206174206c65617374203220636160008201527f6e64696461746573000000000000000000000000000000000000000000000000602082015250565b6000611e8b6028836115af565b9150611e9682611e2f565b604082019050919050565b60006020820190508181036000830152611eba81611e7e565b9050919050565b7f4e487b7100000000000000000000000000000000000000000000000000000000600052601160045260246000fd5b6000611efb8261130e565b91507fffffffffffffffffffffffffffffffffffffffffffffffffffffffffffffffff8203611f2d57611f2c611ec1565b5b600182019050919050565b60008190508160005260206000209050919050565b60006020601f8301049050919050565b600082821b905092915050565b600060088302611f9a7fffffffffffffffffffffffffffffffffffffffffffffffffffffffffffffffff82611f5d565b611fa48683611f5d565b95508019841693508086168417925050509392505050565b6000819050919050565b6000611fe1611fdc611fd78461130e565b611fbc565b61130e565b9050919050565b6000819050919050565b611ffb83611fc6565b61200f61200782611fe8565b848454611f6a565b825550505050565b600090565b612024612017565b61202f818484611ff2565b505050565b5b818110156120535761204860008261201c565b600181019050612035565b5050565b601f8211156120985761206981611f38565b61207284611f4d565b81016020851015612081578190505b61209561208d85611f4d565b830182612034565b50505b505050565b600082821c905092915050565b60006120bb6000198460080261209d565b1980831691505092915050565b60006120d483836120aa565b9150826002028217905092915050565b6120ed826113d6565b67ffffffffffffffff81111561210657612105611719565b5b6121108254611c48565b61211b828285612057565b600060209050601f83116001811461214e576000841561213c578287015190505b61214685826120c8565b8655506121ae565b601f19841661215c86611f38565b60005b828110156121845784890151825560018201915060208501945060208101905061215f565b868310156121a1578489015161219d601f8916826120aa565b8355505b6001600288020188555050505b505050505050565b7f4e487b7100000000000000000000000000000000000000000000000000000000600052603260045260246000fd5b7f566f74696e67206973206f6e6c7920616c6c6f7765642077697468696e20766f60008201527f74696e6720686f75727300000000000000000000000000000000000000000000602082015250565b6000612241602a836115af565b915061224c826121e5565b604082019050919050565b6000602082019050818103600083015261227081612234565b9050919050565b7f4163636f756e742068617320616c726561647920766f74656420696e2074686960008201527f7320656c656374696f6e2e000000000000000000000000000000000000000000602082015250565b60006122d3602b836115af565b91506122de82612277565b604082019050919050565b60006020820190508181036000830152612302816122c6565b9050919050565b60008160001c9050919050565b6000819050919050565b600061233361232e83612309565b612316565b9050919050565b6000815461234781611c48565b61235181866113e1565b9450600182166000811461236c5760018114612382576123b5565b60ff1983168652811515602002860193506123b5565b61238b85611f38565b60005b838110156123ad5781548189015260018201915060208101905061238e565b808801955050505b50505092915050565b60006060830160008084015490506123d581612320565b6123e260008701826113c7565b506001840185830360208701526123f9838261233a565b9250506002840154905061240c81612320565b61241960408701826113c7565b50819250505092915050565b600060408201905061243a6000830185611371565b818103602083015261244c81846123be565b90509392505050565b7f43616e2774206164642063616e64696461746520616674657220656c6563746960008201527f6f6e207374617274696e67206461746500000000000000000000000000000000602082015250565b60006124b16030836115af565b91506124bc82612455565b604082019050919050565b600060208201905081810360008301526124e0816124a4565b9050919050565b7f43616e2774206164642063616e64696461746520746f20616e20656c6563746960008201527f6f6e20616674657220697420697320636f6e636c756465640000000000000000602082015250565b60006125436038836115af565b915061254e826124e7565b604082019050919050565b6000602082019050818103600083015261257281612536565b9050919050565b600060608301600083015161259160008601826113c7565b50602083015184820360208601526125a9828261142d565b91505060408301516125be60408601826113c7565b508091505092915050565b60006040820190506125de6000830185611371565b81810360208301526125f08184612579565b9050939250505056fea2646970667358221220756d293acfde177dca089b88d5cc09ad68229c8413f6b52318dd45c075651b0c64736f6c63430008120033",
  "linkReferences": {},
  "deployedLinkReferences": {}
}