{
  "_format": "hh-sol-artifact-1",
  "contractName": "ElectoralCommission",
  "sourceName": "contracts/ElectoralCommission.sol",
  "abi": [
    {
      "inputs": [],
      "stateMutability": "nonpayable",
      "type": "constructor"
    },
    {
      "anonymous": false,
      "inputs": [
        {
          "indexed": false,
          "internalType": "uint256",
          "name": "electionId",
          "type": "uint256"
        },
        {
          "components": [
            {
              "internalType": "uint256",
              "name": "id",
              "type": "uint256"
            },
            {
              "internalType": "string",
              "name": "name",
              "type": "string"
            },
            {
              "internalType": "uint256",
              "name": "voteCount",
              "type": "uint256"
            }
          ],
          "indexed": false,
          "internalType": "struct Candidate",
          "name": "candidate",
          "type": "tuple"
        }
      ],
      "name": "CandidateAddedEvent",
      "type": "event"
    },
    {
      "anonymous": false,
      "inputs": [
        {
          "indexed": false,
          "internalType": "uint256",
          "name": "electionId",
          "type": "uint256"
        }
      ],
      "name": "ElectionCreatedEvent",
      "type": "event"
    },
    {
      "anonymous": false,
      "inputs": [
        {
          "indexed": false,
          "internalType": "uint8",
          "name": "version",
          "type": "uint8"
        }
      ],
      "name": "Initialized",
      "type": "event"
    },
    {
      "anonymous": false,
      "inputs": [
        {
          "indexed": false,
          "internalType": "uint256",
          "name": "electionId",
          "type": "uint256"
        },
        {
          "components": [
            {
              "internalType": "uint256",
              "name": "id",
              "type": "uint256"
            },
            {
              "internalType": "string",
              "name": "name",
              "type": "string"
            },
            {
              "internalType": "uint256",
              "name": "voteCount",
              "type": "uint256"
            }
          ],
          "indexed": false,
          "internalType": "struct Candidate",
          "name": "candidate",
          "type": "tuple"
        }
      ],
      "name": "VotedEvent",
      "type": "event"
    },
    {
      "inputs": [],
      "name": "candidateCounter",
      "outputs": [
        {
          "internalType": "uint256",
          "name": "",
          "type": "uint256"
        }
      ],
      "stateMutability": "view",
      "type": "function"
    },
    {
      "inputs": [
        {
          "internalType": "uint256",
          "name": "",
          "type": "uint256"
        },
        {
          "internalType": "uint256",
          "name": "",
          "type": "uint256"
        }
      ],
      "name": "candidateIds",
      "outputs": [
        {
          "internalType": "uint256",
          "name": "",
          "type": "uint256"
        }
      ],
      "stateMutability": "view",
      "type": "function"
    },
    {
      "inputs": [
        {
          "internalType": "uint256",
          "name": "",
          "type": "uint256"
        },
        {
          "internalType": "uint256",
          "name": "",
          "type": "uint256"
        }
      ],
      "name": "candidates",
      "outputs": [
        {
          "internalType": "uint256",
          "name": "id",
          "type": "uint256"
        },
        {
          "internalType": "string",
          "name": "name",
          "type": "string"
        },
        {
          "internalType": "uint256",
          "name": "voteCount",
          "type": "uint256"
        }
      ],
      "stateMutability": "view",
      "type": "function"
    },
    {
      "inputs": [
        {
          "internalType": "string",
          "name": "_name",
          "type": "string"
        },
        {
          "internalType": "string",
          "name": "_postName",
          "type": "string"
        },
        {
          "internalType": "uint256",
          "name": "_startDate",
          "type": "uint256"
        },
        {
          "internalType": "uint256",
          "name": "_endDate",
          "type": "uint256"
        },
        {
          "components": [
            {
              "internalType": "uint256",
              "name": "id",
              "type": "uint256"
            },
            {
              "internalType": "string",
              "name": "name",
              "type": "string"
            },
            {
              "internalType": "uint256",
              "name": "voteCount",
              "type": "uint256"
            }
          ],
          "internalType": "struct Candidate[]",
          "name": "_candidates",
          "type": "tuple[]"
        }
      ],
      "name": "createElection",
      "outputs": [],
      "stateMutability": "nonpayable",
      "type": "function"
    },
    {
      "inputs": [],
      "name": "electionCounter",
      "outputs": [
        {
          "internalType": "uint256",
          "name": "",
          "type": "uint256"
        }
      ],
      "stateMutability": "view",
      "type": "function"
    },
    {
      "inputs": [
        {
          "internalType": "uint256",
          "name": "",
          "type": "uint256"
        }
      ],
      "name": "electionIds",
      "outputs": [
        {
          "internalType": "uint256",
          "name": "",
          "type": "uint256"
        }
      ],
      "stateMutability": "view",
      "type": "function"
    },
    {
      "inputs": [
        {
          "internalType": "uint256",
          "name": "",
          "type": "uint256"
        }
      ],
      "name": "elections",
      "outputs": [
        {
          "internalType": "uint256",
          "name": "id",
          "type": "uint256"
        },
        {
          "internalType": "address",
          "name": "owner",
          "type": "address"
        },
        {
          "internalType": "string",
          "name": "name",
          "type": "string"
        },
        {
          "internalType": "string",
          "name": "postName",
          "type": "string"
        },
        {
          "internalType": "uint256",
          "name": "startDate",
          "type": "uint256"
        },
        {
          "internalType": "uint256",
          "name": "endDate",
          "type": "uint256"
        },
        {
          "internalType": "uint256",
          "name": "votesCast",
          "type": "uint256"
        }
      ],
      "stateMutability": "view",
      "type": "function"
    },
    {
      "inputs": [
        {
          "internalType": "uint256",
          "name": "electionId",
          "type": "uint256"
        }
      ],
      "name": "getElectionCandidates",
      "outputs": [
        {
          "components": [
            {
              "internalType": "uint256",
              "name": "id",
              "type": "uint256"
            },
            {
              "internalType": "string",
              "name": "name",
              "type": "string"
            },
            {
              "internalType": "uint256",
              "name": "voteCount",
              "type": "uint256"
            }
          ],
          "internalType": "struct Candidate[]",
          "name": "",
          "type": "tuple[]"
        }
      ],
      "stateMutability": "view",
      "type": "function"
    },
    {
      "inputs": [],
      "name": "getElections",
      "outputs": [
        {
          "components": [
            {
              "components": [
                {
                  "internalType": "uint256",
                  "name": "id",
                  "type": "uint256"
                },
                {
                  "internalType": "address",
                  "name": "owner",
                  "type": "address"
                },
                {
                  "internalType": "string",
                  "name": "name",
                  "type": "string"
                },
                {
                  "internalType": "string",
                  "name": "postName",
                  "type": "string"
                },
                {
                  "internalType": "uint256",
                  "name": "startDate",
                  "type": "uint256"
                },
                {
                  "internalType": "uint256",
                  "name": "endDate",
                  "type": "uint256"
                },
                {
                  "internalType": "uint256",
                  "name": "votesCast",
                  "type": "uint256"
                }
              ],
              "internalType": "struct Election",
              "name": "election",
              "type": "tuple"
            },
            {
              "components": [
                {
                  "internalType": "uint256",
                  "name": "id",
                  "type": "uint256"
                },
                {
                  "internalType": "string",
                  "name": "name",
                  "type": "string"
                },
                {
                  "internalType": "uint256",
                  "name": "voteCount",
                  "type": "uint256"
                }
              ],
              "internalType": "struct Candidate[]",
              "name": "candidates",
              "type": "tuple[]"
            }
          ],
          "internalType": "struct ElectionView[]",
          "name": "",
          "type": "tuple[]"
        }
      ],
      "stateMutability": "view",
      "type": "function"
    },
    {
      "inputs": [
        {
          "internalType": "address",
          "name": "admin",
          "type": "address"
        }
      ],
      "name": "initialize",
      "outputs": [],
      "stateMutability": "nonpayable",
      "type": "function"
    },
    {
      "inputs": [
        {
          "internalType": "uint256",
          "name": "_electionId",
          "type": "uint256"
        },
        {
          "internalType": "uint256",
          "name": "_candidateId",
          "type": "uint256"
        }
      ],
      "name": "vote",
      "outputs": [],
      "stateMutability": "nonpayable",
      "type": "function"
    }
  ],
  "bytecode": "0x60806040523480156200001157600080fd5b5060008060019054906101000a900460ff16159050808015620000445750600160008054906101000a900460ff1660ff16105b8062000080575062000061306200016360201b620011db1760201c565b1580156200007f5750600160008054906101000a900460ff1660ff16145b5b620000c2576040517f08c379a0000000000000000000000000000000000000000000000000000000008152600401620000b9906200020d565b60405180910390fd5b60016000806101000a81548160ff021916908360ff160217905550801562000100576001600060016101000a81548160ff0219169083151502179055505b80156200015c5760008060016101000a81548160ff0219169083151502179055507f7f26b83ff96e1f2b6a682f133852f6798a09c465da95921460cefb3847402498600160405162000153919062000289565b60405180910390a15b50620002a6565b6000808273ffffffffffffffffffffffffffffffffffffffff163b119050919050565b600082825260208201905092915050565b7f496e697469616c697a61626c653a20636f6e747261637420697320616c72656160008201527f647920696e697469616c697a6564000000000000000000000000000000000000602082015250565b6000620001f5602e8362000186565b9150620002028262000197565b604082019050919050565b600060208201905081810360008301526200022881620001e6565b9050919050565b6000819050919050565b600060ff82169050919050565b6000819050919050565b6000620002716200026b62000265846200022f565b62000246565b62000239565b9050919050565b620002838162000250565b82525050565b6000602082019050620002a0600083018462000278565b92915050565b612b1780620002b66000396000f3fe608060405234801561001057600080fd5b50600436106100a95760003560e01c80637de14242116100715780637de1424214610180578063922f287d146101b25780639f3a7f52146101ce578063b384abef146101ec578063c4d66de814610208578063f497d15f14610224576100a9565b806302330a61146100ae5780633bc990db146100de5780635e12845e146100fc5780635e6fef011461012c57806361e3741714610162575b600080fd5b6100c860048036038101906100c3919061162f565b610254565b6040516100d5919061166b565b60405180910390f35b6100e6610278565b6040516100f3919061166b565b60405180910390f35b6101166004803603810190610111919061162f565b61027e565b6040516101239190611837565b60405180910390f35b6101466004803603810190610141919061162f565b610396565b60405161015997969594939291906118e4565b60405180910390f35b61016a610508565b604051610177919061166b565b60405180910390f35b61019a60048036038101906101959190611961565b61050e565b6040516101a9939291906119a1565b60405180910390f35b6101cc60048036038101906101c79190611c84565b6105dd565b005b6101d6610852565b6040516101e39190611f91565b60405180910390f35b61020660048036038101906102019190611961565b610c0d565b005b610222600480360381019061021d9190611fdf565b611032565b005b61023e60048036038101906102399190611961565b6111aa565b60405161024b919061166b565b60405180910390f35b6006818154811061026457600080fd5b906000526020600020016000915090505481565b60045481565b606060076000838152602001908152602001600020805480602002602001604051908101604052809291908181526020016000905b8282101561038b5783829060005260206000209060030201604051806060016040529081600082015481526020016001820180546102f09061203b565b80601f016020809104026020016040519081016040528092919081815260200182805461031c9061203b565b80156103695780601f1061033e57610100808354040283529160200191610369565b820191906000526020600020905b81548152906001019060200180831161034c57829003601f168201915b50505050508152602001600282015481525050815260200190600101906102b3565b505050509050919050565b60056020528060005260406000206000915090508060000154908060010160009054906101000a900473ffffffffffffffffffffffffffffffffffffffff16908060020180546103e59061203b565b80601f01602080910402602001604051908101604052809291908181526020018280546104119061203b565b801561045e5780601f106104335761010080835404028352916020019161045e565b820191906000526020600020905b81548152906001019060200180831161044157829003601f168201915b5050505050908060030180546104739061203b565b80601f016020809104026020016040519081016040528092919081815260200182805461049f9061203b565b80156104ec5780601f106104c1576101008083540402835291602001916104ec565b820191906000526020600020905b8154815290600101906020018083116104cf57829003601f168201915b5050505050908060040154908060050154908060060154905087565b60035481565b6007602052816000526040600020818154811061052a57600080fd5b9060005260206000209060030201600091509150508060000154908060010180546105549061203b565b80601f01602080910402602001604051908101604052809291908181526020018280546105809061203b565b80156105cd5780601f106105a2576101008083540402835291602001916105cd565b820191906000526020600020905b8154815290600101906020018083116105b057829003601f168201915b5050505050908060020154905083565b42831161061f576040517f08c379a0000000000000000000000000000000000000000000000000000000008152600401610616906120de565b60405180910390fd5b428211610661576040517f08c379a000000000000000000000000000000000000000000000000000000000815260040161065890612170565b60405180910390fd5b8282116106a3576040517f08c379a000000000000000000000000000000000000000000000000000000000815260040161069a90612202565b60405180910390fd5b60018151116106e7576040517f08c379a00000000000000000000000000000000000000000000000000000000081526004016106de90612294565b60405180910390fd5b600360008154809291906106fa906122e3565b91905055506000600560006003548152602001908152602001600020905060035481600001819055508581600201908161073491906124d7565b508481600301908161074691906124d7565b50838160040181905550828160050181905550338160010160006101000a81548173ffffffffffffffffffffffffffffffffffffffff021916908373ffffffffffffffffffffffffffffffffffffffff160217905550600660035490806001815401808255809150506001900390600052602060002001600090919091909150557f2fd9465a7f1361d6f4cdc1e2aacd0eda587013b48b162dcdb86e2be56a68a6a16003546040516107f8919061166b565b60405180910390a160005b825181101561084957610836600354848381518110610825576108246125a9565b5b6020026020010151602001516111fe565b8080610841906122e3565b915050610803565b50505050505050565b6060600060035467ffffffffffffffff811115610872576108716119e9565b5b6040519080825280602002602001820160405280156108ab57816020015b610898611572565b8152602001906001900390816108905790505b50905060005b600680549050811015610c0557600060056000600684815481106108d8576108d76125a9565b5b906000526020600020015481526020019081526020016000206040518060e0016040529081600082015481526020016001820160009054906101000a900473ffffffffffffffffffffffffffffffffffffffff1673ffffffffffffffffffffffffffffffffffffffff1673ffffffffffffffffffffffffffffffffffffffff16815260200160028201805461096c9061203b565b80601f01602080910402602001604051908101604052809291908181526020018280546109989061203b565b80156109e55780601f106109ba576101008083540402835291602001916109e5565b820191906000526020600020905b8154815290600101906020018083116109c857829003601f168201915b505050505081526020016003820180546109fe9061203b565b80601f0160208091040260200160405190810160405280929190818152602001828054610a2a9061203b565b8015610a775780601f10610a4c57610100808354040283529160200191610a77565b820191906000526020600020905b815481529060010190602001808311610a5a57829003601f168201915b505050505081526020016004820154815260200160058201548152602001600682015481525050905060006007600083600001518152602001908152602001600020805480602002602001604051908101604052809291908181526020016000905b82821015610bb1578382906000526020600020906003020160405180606001604052908160008201548152602001600182018054610b169061203b565b80601f0160208091040260200160405190810160405280929190818152602001828054610b429061203b565b8015610b8f5780601f10610b6457610100808354040283529160200191610b8f565b820191906000526020600020905b815481529060010190602001808311610b7257829003601f168201915b5050505050815260200160028201548152505081526020019060010190610ad9565b5050505090506000604051806040016040528084815260200183815250905080858581518110610be457610be36125a9565b5b60200260200101819052505050508080610bfd906122e3565b9150506108b1565b508091505090565b6000600560008481526020019081526020016000206040518060e0016040529081600082015481526020016001820160009054906101000a900473ffffffffffffffffffffffffffffffffffffffff1673ffffffffffffffffffffffffffffffffffffffff1673ffffffffffffffffffffffffffffffffffffffff168152602001600282018054610c9d9061203b565b80601f0160208091040260200160405190810160405280929190818152602001828054610cc99061203b565b8015610d165780601f10610ceb57610100808354040283529160200191610d16565b820191906000526020600020905b815481529060010190602001808311610cf957829003601f168201915b50505050508152602001600382018054610d2f9061203b565b80601f0160208091040260200160405190810160405280929190818152602001828054610d5b9061203b565b8015610da85780601f10610d7d57610100808354040283529160200191610da8565b820191906000526020600020905b815481529060010190602001808311610d8b57829003601f168201915b50505050508152602001600482015481526020016005820154815260200160068201548152505090506000600760008581526020019081526020016000209050816080015142118015610dfe57508160a0015142105b610e3d576040517f08c379a0000000000000000000000000000000000000000000000000000000008152600401610e349061264a565b60405180910390fd5b600015156009600086815260200190815260200160002060003373ffffffffffffffffffffffffffffffffffffffff1673ffffffffffffffffffffffffffffffffffffffff16815260200190815260200160002060009054906101000a900460ff16151514610ee1576040517f08c379a0000000000000000000000000000000000000000000000000000000008152600401610ed8906126dc565b60405180910390fd5b60005b818054905081101561102b5783828281548110610f0457610f036125a9565b5b9060005260206000209060030201600001540361101857818181548110610f2e57610f2d6125a9565b5b90600052602060002090600302016002016000815480929190610f50906122e3565b919050555060016009600087815260200190815260200160002060003373ffffffffffffffffffffffffffffffffffffffff1673ffffffffffffffffffffffffffffffffffffffff16815260200190815260200160002060006101000a81548160ff0219169083151502179055507f216b0823ff33c241b868bb4db66f305a739ec6caabfb47a09f02574aff6b416a85838381548110610ff357610ff26125a9565b5b906000526020600020906003020160405161100f929190612818565b60405180910390a15b8080611023906122e3565b915050610ee4565b5050505050565b60008060019054906101000a900460ff161590508080156110635750600160008054906101000a900460ff1660ff16105b806110905750611072306111db565b15801561108f5750600160008054906101000a900460ff1660ff16145b5b6110cf576040517f08c379a00000000000000000000000000000000000000000000000000000000081526004016110c6906128ba565b60405180910390fd5b60016000806101000a81548160ff021916908360ff160217905550801561110c576001600060016101000a81548160ff0219169083151502179055505b81600260006101000a81548173ffffffffffffffffffffffffffffffffffffffff021916908373ffffffffffffffffffffffffffffffffffffffff16021790555080156111a65760008060016101000a81548160ff0219169083151502179055507f7f26b83ff96e1f2b6a682f133852f6798a09c465da95921460cefb3847402498600160405161119d9190612922565b60405180910390a15b5050565b600860205281600052604060002081815481106111c657600080fd5b90600052602060002001600091509150505481565b6000808273ffffffffffffffffffffffffffffffffffffffff163b119050919050565b6000600560008481526020019081526020016000206040518060e0016040529081600082015481526020016001820160009054906101000a900473ffffffffffffffffffffffffffffffffffffffff1673ffffffffffffffffffffffffffffffffffffffff1673ffffffffffffffffffffffffffffffffffffffff16815260200160028201805461128e9061203b565b80601f01602080910402602001604051908101604052809291908181526020018280546112ba9061203b565b80156113075780601f106112dc57610100808354040283529160200191611307565b820191906000526020600020905b8154815290600101906020018083116112ea57829003601f168201915b505050505081526020016003820180546113209061203b565b80601f016020809104026020016040519081016040528092919081815260200182805461134c9061203b565b80156113995780601f1061136e57610100808354040283529160200191611399565b820191906000526020600020905b81548152906001019060200180831161137c57829003601f168201915b505050505081526020016004820154815260200160058201548152602001600682015481525050905080608001514210611408576040517f08c379a00000000000000000000000000000000000000000000000000000000081526004016113ff906129af565b60405180910390fd5b8060a00151421061144e576040517f08c379a000000000000000000000000000000000000000000000000000000000815260040161144590612a41565b60405180910390fd5b60046000815480929190611461906122e3565b9190505550600060076000858152602001908152602001600020905060006040518060600160405280600454815260200185815260200160008152509050818190806001815401808255809150506001900390600052602060002090600302016000909190919091506000820151816000015560208201518160010190816114e991906124d7565b506040820151816002015550506008600086815260200190815260200160002060045490806001815401808255809150506001900390600052602060002001600090919091909150557f5ca0d74d8e1ba50afeae4f9e6ba75fb719e993b9d3c9237d71775d7a692ec9fb8582604051611563929190612ab1565b60405180910390a15050505050565b6040518060400160405280611585611592565b8152602001606081525090565b6040518060e0016040528060008152602001600073ffffffffffffffffffffffffffffffffffffffff16815260200160608152602001606081526020016000815260200160008152602001600081525090565b6000604051905090565b600080fd5b600080fd5b6000819050919050565b61160c816115f9565b811461161757600080fd5b50565b60008135905061162981611603565b92915050565b600060208284031215611645576116446115ef565b5b60006116538482850161161a565b91505092915050565b611665816115f9565b82525050565b6000602082019050611680600083018461165c565b92915050565b600081519050919050565b600082825260208201905092915050565b6000819050602082019050919050565b6116bb816115f9565b82525050565b600081519050919050565b600082825260208201905092915050565b60005b838110156116fb5780820151818401526020810190506116e0565b60008484015250505050565b6000601f19601f8301169050919050565b6000611723826116c1565b61172d81856116cc565b935061173d8185602086016116dd565b61174681611707565b840191505092915050565b600060608301600083015161176960008601826116b2565b50602083015184820360208601526117818282611718565b915050604083015161179660408601826116b2565b508091505092915050565b60006117ad8383611751565b905092915050565b6000602082019050919050565b60006117cd82611686565b6117d78185611691565b9350836020820285016117e9856116a2565b8060005b85811015611825578484038952815161180685826117a1565b9450611811836117b5565b925060208a019950506001810190506117ed565b50829750879550505050505092915050565b6000602082019050818103600083015261185181846117c2565b905092915050565b600073ffffffffffffffffffffffffffffffffffffffff82169050919050565b600061188482611859565b9050919050565b61189481611879565b82525050565b600082825260208201905092915050565b60006118b6826116c1565b6118c0818561189a565b93506118d08185602086016116dd565b6118d981611707565b840191505092915050565b600060e0820190506118f9600083018a61165c565b611906602083018961188b565b818103604083015261191881886118ab565b9050818103606083015261192c81876118ab565b905061193b608083018661165c565b61194860a083018561165c565b61195560c083018461165c565b98975050505050505050565b60008060408385031215611978576119776115ef565b5b60006119868582860161161a565b92505060206119978582860161161a565b9150509250929050565b60006060820190506119b6600083018661165c565b81810360208301526119c881856118ab565b90506119d7604083018461165c565b949350505050565b600080fd5b600080fd5b7f4e487b7100000000000000000000000000000000000000000000000000000000600052604160045260246000fd5b611a2182611707565b810181811067ffffffffffffffff82111715611a4057611a3f6119e9565b5b80604052505050565b6000611a536115e5565b9050611a5f8282611a18565b919050565b600067ffffffffffffffff821115611a7f57611a7e6119e9565b5b611a8882611707565b9050602081019050919050565b82818337600083830152505050565b6000611ab7611ab284611a64565b611a49565b905082815260208101848484011115611ad357611ad26119e4565b5b611ade848285611a95565b509392505050565b600082601f830112611afb57611afa6119df565b5b8135611b0b848260208601611aa4565b91505092915050565b600067ffffffffffffffff821115611b2f57611b2e6119e9565b5b602082029050602081019050919050565b600080fd5b600080fd5b600080fd5b600060608284031215611b6557611b64611b45565b5b611b6f6060611a49565b90506000611b7f8482850161161a565b600083015250602082013567ffffffffffffffff811115611ba357611ba2611b4a565b5b611baf84828501611ae6565b6020830152506040611bc38482850161161a565b60408301525092915050565b6000611be2611bdd84611b14565b611a49565b90508083825260208201905060208402830185811115611c0557611c04611b40565b5b835b81811015611c4c57803567ffffffffffffffff811115611c2a57611c296119df565b5b808601611c378982611b4f565b85526020850194505050602081019050611c07565b5050509392505050565b600082601f830112611c6b57611c6a6119df565b5b8135611c7b848260208601611bcf565b91505092915050565b600080600080600060a08688031215611ca057611c9f6115ef565b5b600086013567ffffffffffffffff811115611cbe57611cbd6115f4565b5b611cca88828901611ae6565b955050602086013567ffffffffffffffff811115611ceb57611cea6115f4565b5b611cf788828901611ae6565b9450506040611d088882890161161a565b9350506060611d198882890161161a565b925050608086013567ffffffffffffffff811115611d3a57611d396115f4565b5b611d4688828901611c56565b9150509295509295909350565b600081519050919050565b600082825260208201905092915050565b6000819050602082019050919050565b611d8881611879565b82525050565b600060e083016000830151611da660008601826116b2565b506020830151611db96020860182611d7f565b5060408301518482036040860152611dd18282611718565b91505060608301518482036060860152611deb8282611718565b9150506080830151611e0060808601826116b2565b5060a0830151611e1360a08601826116b2565b5060c0830151611e2660c08601826116b2565b508091505092915050565b600082825260208201905092915050565b6000611e4d82611686565b611e578185611e31565b935083602082028501611e69856116a2565b8060005b85811015611ea55784840389528151611e8685826117a1565b9450611e91836117b5565b925060208a01995050600181019050611e6d565b50829750879550505050505092915050565b60006040830160008301518482036000860152611ed48282611d8e565b91505060208301518482036020860152611eee8282611e42565b9150508091505092915050565b6000611f078383611eb7565b905092915050565b6000602082019050919050565b6000611f2782611d53565b611f318185611d5e565b935083602082028501611f4385611d6f565b8060005b85811015611f7f5784840389528151611f608582611efb565b9450611f6b83611f0f565b925060208a01995050600181019050611f47565b50829750879550505050505092915050565b60006020820190508181036000830152611fab8184611f1c565b905092915050565b611fbc81611879565b8114611fc757600080fd5b50565b600081359050611fd981611fb3565b92915050565b600060208284031215611ff557611ff46115ef565b5b600061200384828501611fca565b91505092915050565b7f4e487b7100000000000000000000000000000000000000000000000000000000600052602260045260246000fd5b6000600282049050600182168061205357607f821691505b6020821081036120665761206561200c565b5b50919050565b7f456c656374696f6e207374617274696e672064617465206d757374206265206960008201527f6e20746865206675747572650000000000000000000000000000000000000000602082015250565b60006120c8602c8361189a565b91506120d38261206c565b604082019050919050565b600060208201905081810360008301526120f7816120bb565b9050919050565b7f456c656374696f6e20656e64696e672064617465206d75737420626520696e2060008201527f7468652066757475726500000000000000000000000000000000000000000000602082015250565b600061215a602a8361189a565b9150612165826120fe565b604082019050919050565b600060208201905081810360008301526121898161214d565b9050919050565b7f456c656374696f6e20656e64696e672064617465206d757374206265206c617460008201527f6572207468616e207374617274696e6720646174650000000000000000000000602082015250565b60006121ec60358361189a565b91506121f782612190565b604082019050919050565b6000602082019050818103600083015261221b816121df565b9050919050565b7f456c656374696f6e206d7573742068617665206174206c65617374203220636160008201527f6e64696461746573000000000000000000000000000000000000000000000000602082015250565b600061227e60288361189a565b915061228982612222565b604082019050919050565b600060208201905081810360008301526122ad81612271565b9050919050565b7f4e487b7100000000000000000000000000000000000000000000000000000000600052601160045260246000fd5b60006122ee826115f9565b91507fffffffffffffffffffffffffffffffffffffffffffffffffffffffffffffffff82036123205761231f6122b4565b5b600182019050919050565b60008190508160005260206000209050919050565b60006020601f8301049050919050565b600082821b905092915050565b60006008830261238d7fffffffffffffffffffffffffffffffffffffffffffffffffffffffffffffffff82612350565b6123978683612350565b95508019841693508086168417925050509392505050565b6000819050919050565b60006123d46123cf6123ca846115f9565b6123af565b6115f9565b9050919050565b6000819050919050565b6123ee836123b9565b6124026123fa826123db565b84845461235d565b825550505050565b600090565b61241761240a565b6124228184846123e5565b505050565b5b818110156124465761243b60008261240f565b600181019050612428565b5050565b601f82111561248b5761245c8161232b565b61246584612340565b81016020851015612474578190505b61248861248085612340565b830182612427565b50505b505050565b600082821c905092915050565b60006124ae60001984600802612490565b1980831691505092915050565b60006124c7838361249d565b9150826002028217905092915050565b6124e0826116c1565b67ffffffffffffffff8111156124f9576124f86119e9565b5b612503825461203b565b61250e82828561244a565b600060209050601f831160018114612541576000841561252f578287015190505b61253985826124bb565b8655506125a1565b601f19841661254f8661232b565b60005b8281101561257757848901518255600182019150602085019450602081019050612552565b868310156125945784890151612590601f89168261249d565b8355505b6001600288020188555050505b505050505050565b7f4e487b7100000000000000000000000000000000000000000000000000000000600052603260045260246000fd5b7f566f74696e67206973206f6e6c7920616c6c6f7765642077697468696e20766f60008201527f74696e6720686f75727300000000000000000000000000000000000000000000602082015250565b6000612634602a8361189a565b915061263f826125d8565b604082019050919050565b6000602082019050818103600083015261266381612627565b9050919050565b7f4163636f756e742068617320616c726561647920766f74656420696e2074686960008201527f7320656c656374696f6e2e000000000000000000000000000000000000000000602082015250565b60006126c6602b8361189a565b91506126d18261266a565b604082019050919050565b600060208201905081810360008301526126f5816126b9565b9050919050565b60008160001c9050919050565b6000819050919050565b6000612726612721836126fc565b612709565b9050919050565b6000815461273a8161203b565b61274481866116cc565b9450600182166000811461275f5760018114612775576127a8565b60ff1983168652811515602002860193506127a8565b61277e8561232b565b60005b838110156127a057815481890152600182019150602081019050612781565b808801955050505b50505092915050565b60006060830160008084015490506127c881612713565b6127d560008701826116b2565b506001840185830360208701526127ec838261272d565b925050600284015490506127ff81612713565b61280c60408701826116b2565b50819250505092915050565b600060408201905061282d600083018561165c565b818103602083015261283f81846127b1565b90509392505050565b7f496e697469616c697a61626c653a20636f6e747261637420697320616c72656160008201527f647920696e697469616c697a6564000000000000000000000000000000000000602082015250565b60006128a4602e8361189a565b91506128af82612848565b604082019050919050565b600060208201905081810360008301526128d381612897565b9050919050565b6000819050919050565b600060ff82169050919050565b600061290c612907612902846128da565b6123af565b6128e4565b9050919050565b61291c816128f1565b82525050565b60006020820190506129376000830184612913565b92915050565b7f43616e2774206164642063616e64696461746520616674657220656c6563746960008201527f6f6e207374617274696e67206461746500000000000000000000000000000000602082015250565b600061299960308361189a565b91506129a48261293d565b604082019050919050565b600060208201905081810360008301526129c88161298c565b9050919050565b7f43616e2774206164642063616e64696461746520746f20616e20656c6563746960008201527f6f6e20616674657220697420697320636f6e636c756465640000000000000000602082015250565b6000612a2b60388361189a565b9150612a36826129cf565b604082019050919050565b60006020820190508181036000830152612a5a81612a1e565b9050919050565b6000606083016000830151612a7960008601826116b2565b5060208301518482036020860152612a918282611718565b9150506040830151612aa660408601826116b2565b508091505092915050565b6000604082019050612ac6600083018561165c565b8181036020830152612ad88184612a61565b9050939250505056fea26469706673582212203ebe22135ce36c9b538e59540057af3125ab91b384b8615e655a51e15018d16d64736f6c63430008120033",
  "linkReferences": {},
  "deployedLinkReferences": {}
}