{
  "_format": "hh-sol-artifact-1",
  "contractName": "ElectoralCommission",
  "sourceName": "contracts/ElectoralCommission.sol",
  "abi": [
    {
      "inputs": [],
      "stateMutability": "nonpayable",
      "type": "constructor"
    },
    {
      "anonymous": false,
      "inputs": [
        {
          "indexed": false,
          "internalType": "uint256",
          "name": "electionId",
          "type": "uint256"
        },
        {
          "components": [
            {
              "internalType": "uint256",
              "name": "id",
              "type": "uint256"
            },
            {
              "internalType": "string",
              "name": "name",
              "type": "string"
            },
            {
              "internalType": "uint256",
              "name": "voteCount",
              "type": "uint256"
            }
          ],
          "indexed": false,
          "internalType": "struct Candidate",
          "name": "candidate",
          "type": "tuple"
        }
      ],
      "name": "CandidateAddedEvent",
      "type": "event"
    },
    {
      "anonymous": false,
      "inputs": [
        {
          "indexed": false,
          "internalType": "uint256",
          "name": "electionId",
          "type": "uint256"
        }
      ],
      "name": "ElectionCreatedEvent",
      "type": "event"
    },
    {
      "anonymous": false,
      "inputs": [
        {
          "indexed": false,
          "internalType": "uint256",
          "name": "electionId",
          "type": "uint256"
        },
        {
          "components": [
            {
              "internalType": "uint256",
              "name": "id",
              "type": "uint256"
            },
            {
              "internalType": "string",
              "name": "name",
              "type": "string"
            },
            {
              "internalType": "uint256",
              "name": "voteCount",
              "type": "uint256"
            }
          ],
          "indexed": false,
          "internalType": "struct Candidate",
          "name": "candidate",
          "type": "tuple"
        }
      ],
      "name": "VotedEvent",
      "type": "event"
    },
    {
      "inputs": [
        {
          "internalType": "uint256",
          "name": "_electionId",
          "type": "uint256"
        },
        {
          "internalType": "string",
          "name": "_name",
          "type": "string"
        }
      ],
      "name": "addCandidate",
      "outputs": [],
      "stateMutability": "nonpayable",
      "type": "function"
    },
    {
      "inputs": [],
      "name": "candidateCounter",
      "outputs": [
        {
          "internalType": "uint256",
          "name": "",
          "type": "uint256"
        }
      ],
      "stateMutability": "view",
      "type": "function"
    },
    {
      "inputs": [
        {
          "internalType": "uint256",
          "name": "",
          "type": "uint256"
        },
        {
          "internalType": "uint256",
          "name": "",
          "type": "uint256"
        }
      ],
      "name": "candidateIds",
      "outputs": [
        {
          "internalType": "uint256",
          "name": "",
          "type": "uint256"
        }
      ],
      "stateMutability": "view",
      "type": "function"
    },
    {
      "inputs": [
        {
          "internalType": "uint256",
          "name": "",
          "type": "uint256"
        },
        {
          "internalType": "uint256",
          "name": "",
          "type": "uint256"
        }
      ],
      "name": "candidates",
      "outputs": [
        {
          "internalType": "uint256",
          "name": "id",
          "type": "uint256"
        },
        {
          "internalType": "string",
          "name": "name",
          "type": "string"
        },
        {
          "internalType": "uint256",
          "name": "voteCount",
          "type": "uint256"
        }
      ],
      "stateMutability": "view",
      "type": "function"
    },
    {
      "inputs": [
        {
          "internalType": "string",
          "name": "_name",
          "type": "string"
        },
        {
          "internalType": "string",
          "name": "_postName",
          "type": "string"
        },
        {
          "internalType": "uint256",
          "name": "_startDate",
          "type": "uint256"
        },
        {
          "internalType": "uint256",
          "name": "_endDate",
          "type": "uint256"
        }
      ],
      "name": "createElection",
      "outputs": [],
      "stateMutability": "nonpayable",
      "type": "function"
    },
    {
      "inputs": [],
      "name": "electionCounter",
      "outputs": [
        {
          "internalType": "uint256",
          "name": "",
          "type": "uint256"
        }
      ],
      "stateMutability": "view",
      "type": "function"
    },
    {
      "inputs": [
        {
          "internalType": "uint256",
          "name": "",
          "type": "uint256"
        }
      ],
      "name": "electionIds",
      "outputs": [
        {
          "internalType": "uint256",
          "name": "",
          "type": "uint256"
        }
      ],
      "stateMutability": "view",
      "type": "function"
    },
    {
      "inputs": [
        {
          "internalType": "uint256",
          "name": "",
          "type": "uint256"
        }
      ],
      "name": "elections",
      "outputs": [
        {
          "internalType": "uint256",
          "name": "id",
          "type": "uint256"
        },
        {
          "internalType": "address",
          "name": "owner",
          "type": "address"
        },
        {
          "internalType": "string",
          "name": "name",
          "type": "string"
        },
        {
          "internalType": "string",
          "name": "postName",
          "type": "string"
        },
        {
          "internalType": "uint256",
          "name": "startDate",
          "type": "uint256"
        },
        {
          "internalType": "uint256",
          "name": "endDate",
          "type": "uint256"
        },
        {
          "internalType": "uint256",
          "name": "votesCast",
          "type": "uint256"
        }
      ],
      "stateMutability": "view",
      "type": "function"
    },
    {
      "inputs": [
        {
          "internalType": "uint256",
          "name": "electionId",
          "type": "uint256"
        }
      ],
      "name": "getElectionCandidates",
      "outputs": [
        {
          "components": [
            {
              "internalType": "uint256",
              "name": "id",
              "type": "uint256"
            },
            {
              "internalType": "string",
              "name": "name",
              "type": "string"
            },
            {
              "internalType": "uint256",
              "name": "voteCount",
              "type": "uint256"
            }
          ],
          "internalType": "struct Candidate[]",
          "name": "",
          "type": "tuple[]"
        }
      ],
      "stateMutability": "view",
      "type": "function"
    },
    {
      "inputs": [],
      "name": "getElections",
      "outputs": [
        {
          "components": [
            {
              "internalType": "uint256",
              "name": "id",
              "type": "uint256"
            },
            {
              "internalType": "address",
              "name": "owner",
              "type": "address"
            },
            {
              "internalType": "string",
              "name": "name",
              "type": "string"
            },
            {
              "internalType": "string",
              "name": "postName",
              "type": "string"
            },
            {
              "internalType": "uint256",
              "name": "startDate",
              "type": "uint256"
            },
            {
              "internalType": "uint256",
              "name": "endDate",
              "type": "uint256"
            },
            {
              "internalType": "uint256",
              "name": "votesCast",
              "type": "uint256"
            }
          ],
          "internalType": "struct Election[]",
          "name": "",
          "type": "tuple[]"
        }
      ],
      "stateMutability": "view",
      "type": "function"
    },
    {
      "inputs": [],
      "name": "owner",
      "outputs": [
        {
          "internalType": "address",
          "name": "",
          "type": "address"
        }
      ],
      "stateMutability": "view",
      "type": "function"
    },
    {
      "inputs": [
        {
          "internalType": "uint256",
          "name": "_electionId",
          "type": "uint256"
        },
        {
          "internalType": "uint256",
          "name": "_candidateId",
          "type": "uint256"
        }
      ],
      "name": "vote",
      "outputs": [],
      "stateMutability": "nonpayable",
      "type": "function"
    }
  ],
  "bytecode": "0x608060405234801561001057600080fd5b50336000806101000a81548173ffffffffffffffffffffffffffffffffffffffff021916908373ffffffffffffffffffffffffffffffffffffffff16021790555061240f806100606000396000f3fe608060405234801561001057600080fd5b50600436106100b45760003560e01c80637ad36e84116100715780637ad36e84146101a75780637de14242146101c35780638da5cb5b146101f55780639f3a7f5214610213578063b384abef14610231578063f497d15f1461024d576100b4565b806302330a61146100b95780631750a3d0146100e95780633bc990db146101055780635e12845e146101235780635e6fef011461015357806361e3741714610189575b600080fd5b6100d360048036038101906100ce91906112fa565b61027d565b6040516100e09190611336565b60405180910390f35b61010360048036038101906100fe9190611497565b6102a1565b005b61010d610615565b60405161011a9190611336565b60405180910390f35b61013d600480360381019061013891906112fa565b61061b565b60405161014a9190611693565b60405180910390f35b61016d600480360381019061016891906112fa565b610733565b6040516101809796959493929190611740565b60405180910390f35b6101916108a5565b60405161019e9190611336565b60405180910390f35b6101c160048036038101906101bc91906117bd565b6108ab565b005b6101dd60048036038101906101d8919061185c565b610a91565b6040516101ec9392919061189c565b60405180910390f35b6101fd610b60565b60405161020a91906118da565b60405180910390f35b61021b610b84565b6040516102289190611a69565b60405180910390f35b61024b6004803603810190610246919061185c565b610e07565b005b6102676004803603810190610262919061185c565b61122c565b6040516102749190611336565b60405180910390f35b6004818154811061028d57600080fd5b906000526020600020016000915090505481565b6000600360008481526020019081526020016000206040518060e0016040529081600082015481526020016001820160009054906101000a900473ffffffffffffffffffffffffffffffffffffffff1673ffffffffffffffffffffffffffffffffffffffff1673ffffffffffffffffffffffffffffffffffffffff16815260200160028201805461033190611aba565b80601f016020809104026020016040519081016040528092919081815260200182805461035d90611aba565b80156103aa5780601f1061037f576101008083540402835291602001916103aa565b820191906000526020600020905b81548152906001019060200180831161038d57829003601f168201915b505050505081526020016003820180546103c390611aba565b80601f01602080910402602001604051908101604052809291908181526020018280546103ef90611aba565b801561043c5780601f106104115761010080835404028352916020019161043c565b820191906000526020600020905b81548152906001019060200180831161041f57829003601f168201915b5050505050815260200160048201548152602001600582015481526020016006820154815250509050806080015142106104ab576040517f08c379a00000000000000000000000000000000000000000000000000000000081526004016104a290611b5d565b60405180910390fd5b8060a0015142106104f1576040517f08c379a00000000000000000000000000000000000000000000000000000000081526004016104e890611bef565b60405180910390fd5b6002600081548092919061050490611c3e565b91905055506000600560008581526020019081526020016000209050600060405180606001604052806002548152602001858152602001600081525090508181908060018154018082558091505060019003906000526020600020906003020160009091909190915060008201518160000155602082015181600101908161058c9190611e32565b506040820151816002015550506006600086815260200190815260200160002060025490806001815401808255809150506001900390600052602060002001600090919091909150557f5ca0d74d8e1ba50afeae4f9e6ba75fb719e993b9d3c9237d71775d7a692ec9fb8582604051610606929190611f54565b60405180910390a15050505050565b60025481565b606060056000838152602001908152602001600020805480602002602001604051908101604052809291908181526020016000905b8282101561072857838290600052602060002090600302016040518060600160405290816000820154815260200160018201805461068d90611aba565b80601f01602080910402602001604051908101604052809291908181526020018280546106b990611aba565b80156107065780601f106106db57610100808354040283529160200191610706565b820191906000526020600020905b8154815290600101906020018083116106e957829003601f168201915b5050505050815260200160028201548152505081526020019060010190610650565b505050509050919050565b60036020528060005260406000206000915090508060000154908060010160009054906101000a900473ffffffffffffffffffffffffffffffffffffffff169080600201805461078290611aba565b80601f01602080910402602001604051908101604052809291908181526020018280546107ae90611aba565b80156107fb5780601f106107d0576101008083540402835291602001916107fb565b820191906000526020600020905b8154815290600101906020018083116107de57829003601f168201915b50505050509080600301805461081090611aba565b80601f016020809104026020016040519081016040528092919081815260200182805461083c90611aba565b80156108895780601f1061085e57610100808354040283529160200191610889565b820191906000526020600020905b81548152906001019060200180831161086c57829003601f168201915b5050505050908060040154908060050154908060060154905087565b60015481565b4282116108ed576040517f08c379a00000000000000000000000000000000000000000000000000000000081526004016108e490611ff6565b60405180910390fd5b42811161092f576040517f08c379a000000000000000000000000000000000000000000000000000000000815260040161092690612088565b60405180910390fd5b818111610971576040517f08c379a00000000000000000000000000000000000000000000000000000000081526004016109689061211a565b60405180910390fd5b6001600081548092919061098490611c3e565b9190505550600060036000600154815260200190815260200160002090506001548160000181905550848160020190816109be9190611e32565b50838160030190816109d09190611e32565b50828160040181905550818160050181905550338160010160006101000a81548173ffffffffffffffffffffffffffffffffffffffff021916908373ffffffffffffffffffffffffffffffffffffffff160217905550600460015490806001815401808255809150506001900390600052602060002001600090919091909150557f2fd9465a7f1361d6f4cdc1e2aacd0eda587013b48b162dcdb86e2be56a68a6a1600154604051610a829190611336565b60405180910390a15050505050565b60056020528160005260406000208181548110610aad57600080fd5b906000526020600020906003020160009150915050806000015490806001018054610ad790611aba565b80601f0160208091040260200160405190810160405280929190818152602001828054610b0390611aba565b8015610b505780601f10610b2557610100808354040283529160200191610b50565b820191906000526020600020905b815481529060010190602001808311610b3357829003601f168201915b5050505050908060020154905083565b60008054906101000a900473ffffffffffffffffffffffffffffffffffffffff1681565b6060600060015467ffffffffffffffff811115610ba457610ba361136c565b5b604051908082528060200260200182016040528015610bdd57816020015b610bca61125d565b815260200190600190039081610bc25790505b50905060005b600480549050811015610dff576003600060048381548110610c0857610c0761213a565b5b906000526020600020015481526020019081526020016000206040518060e0016040529081600082015481526020016001820160009054906101000a900473ffffffffffffffffffffffffffffffffffffffff1673ffffffffffffffffffffffffffffffffffffffff1673ffffffffffffffffffffffffffffffffffffffff168152602001600282018054610c9c90611aba565b80601f0160208091040260200160405190810160405280929190818152602001828054610cc890611aba565b8015610d155780601f10610cea57610100808354040283529160200191610d15565b820191906000526020600020905b815481529060010190602001808311610cf857829003601f168201915b50505050508152602001600382018054610d2e90611aba565b80601f0160208091040260200160405190810160405280929190818152602001828054610d5a90611aba565b8015610da75780601f10610d7c57610100808354040283529160200191610da7565b820191906000526020600020905b815481529060010190602001808311610d8a57829003601f168201915b505050505081526020016004820154815260200160058201548152602001600682015481525050828281518110610de157610de061213a565b5b60200260200101819052508080610df790611c3e565b915050610be3565b508091505090565b6000600360008481526020019081526020016000206040518060e0016040529081600082015481526020016001820160009054906101000a900473ffffffffffffffffffffffffffffffffffffffff1673ffffffffffffffffffffffffffffffffffffffff1673ffffffffffffffffffffffffffffffffffffffff168152602001600282018054610e9790611aba565b80601f0160208091040260200160405190810160405280929190818152602001828054610ec390611aba565b8015610f105780601f10610ee557610100808354040283529160200191610f10565b820191906000526020600020905b815481529060010190602001808311610ef357829003601f168201915b50505050508152602001600382018054610f2990611aba565b80601f0160208091040260200160405190810160405280929190818152602001828054610f5590611aba565b8015610fa25780601f10610f7757610100808354040283529160200191610fa2565b820191906000526020600020905b815481529060010190602001808311610f8557829003601f168201915b50505050508152602001600482015481526020016005820154815260200160068201548152505090506000600560008581526020019081526020016000209050816080015142118015610ff857508160a0015142105b611037576040517f08c379a000000000000000000000000000000000000000000000000000000000815260040161102e906121db565b60405180910390fd5b600015156007600086815260200190815260200160002060003373ffffffffffffffffffffffffffffffffffffffff1673ffffffffffffffffffffffffffffffffffffffff16815260200190815260200160002060009054906101000a900460ff161515146110db576040517f08c379a00000000000000000000000000000000000000000000000000000000081526004016110d29061226d565b60405180910390fd5b60005b818054905081101561122557838282815481106110fe576110fd61213a565b5b90600052602060002090600302016000015403611212578181815481106111285761112761213a565b5b9060005260206000209060030201600201600081548092919061114a90611c3e565b919050555060016007600087815260200190815260200160002060003373ffffffffffffffffffffffffffffffffffffffff1673ffffffffffffffffffffffffffffffffffffffff16815260200190815260200160002060006101000a81548160ff0219169083151502179055507f216b0823ff33c241b868bb4db66f305a739ec6caabfb47a09f02574aff6b416a858383815481106111ed576111ec61213a565b5b90600052602060002090600302016040516112099291906123a9565b60405180910390a15b808061121d90611c3e565b9150506110de565b5050505050565b6006602052816000526040600020818154811061124857600080fd5b90600052602060002001600091509150505481565b6040518060e0016040528060008152602001600073ffffffffffffffffffffffffffffffffffffffff16815260200160608152602001606081526020016000815260200160008152602001600081525090565b6000604051905090565b600080fd5b600080fd5b6000819050919050565b6112d7816112c4565b81146112e257600080fd5b50565b6000813590506112f4816112ce565b92915050565b6000602082840312156113105761130f6112ba565b5b600061131e848285016112e5565b91505092915050565b611330816112c4565b82525050565b600060208201905061134b6000830184611327565b92915050565b600080fd5b600080fd5b6000601f19601f8301169050919050565b7f4e487b7100000000000000000000000000000000000000000000000000000000600052604160045260246000fd5b6113a48261135b565b810181811067ffffffffffffffff821117156113c3576113c261136c565b5b80604052505050565b60006113d66112b0565b90506113e2828261139b565b919050565b600067ffffffffffffffff8211156114025761140161136c565b5b61140b8261135b565b9050602081019050919050565b82818337600083830152505050565b600061143a611435846113e7565b6113cc565b90508281526020810184848401111561145657611455611356565b5b611461848285611418565b509392505050565b600082601f83011261147e5761147d611351565b5b813561148e848260208601611427565b91505092915050565b600080604083850312156114ae576114ad6112ba565b5b60006114bc858286016112e5565b925050602083013567ffffffffffffffff8111156114dd576114dc6112bf565b5b6114e985828601611469565b9150509250929050565b600081519050919050565b600082825260208201905092915050565b6000819050602082019050919050565b611528816112c4565b82525050565b600081519050919050565b600082825260208201905092915050565b60005b8381101561156857808201518184015260208101905061154d565b60008484015250505050565b600061157f8261152e565b6115898185611539565b935061159981856020860161154a565b6115a28161135b565b840191505092915050565b60006060830160008301516115c5600086018261151f565b50602083015184820360208601526115dd8282611574565b91505060408301516115f2604086018261151f565b508091505092915050565b600061160983836115ad565b905092915050565b6000602082019050919050565b6000611629826114f3565b61163381856114fe565b9350836020820285016116458561150f565b8060005b85811015611681578484038952815161166285826115fd565b945061166d83611611565b925060208a01995050600181019050611649565b50829750879550505050505092915050565b600060208201905081810360008301526116ad818461161e565b905092915050565b600073ffffffffffffffffffffffffffffffffffffffff82169050919050565b60006116e0826116b5565b9050919050565b6116f0816116d5565b82525050565b600082825260208201905092915050565b60006117128261152e565b61171c81856116f6565b935061172c81856020860161154a565b6117358161135b565b840191505092915050565b600060e082019050611755600083018a611327565b61176260208301896116e7565b81810360408301526117748188611707565b905081810360608301526117888187611707565b90506117976080830186611327565b6117a460a0830185611327565b6117b160c0830184611327565b98975050505050505050565b600080600080608085870312156117d7576117d66112ba565b5b600085013567ffffffffffffffff8111156117f5576117f46112bf565b5b61180187828801611469565b945050602085013567ffffffffffffffff811115611822576118216112bf565b5b61182e87828801611469565b935050604061183f878288016112e5565b9250506060611850878288016112e5565b91505092959194509250565b60008060408385031215611873576118726112ba565b5b6000611881858286016112e5565b9250506020611892858286016112e5565b9150509250929050565b60006060820190506118b16000830186611327565b81810360208301526118c38185611707565b90506118d26040830184611327565b949350505050565b60006020820190506118ef60008301846116e7565b92915050565b600081519050919050565b600082825260208201905092915050565b6000819050602082019050919050565b61192a816116d5565b82525050565b600060e083016000830151611948600086018261151f565b50602083015161195b6020860182611921565b50604083015184820360408601526119738282611574565b9150506060830151848203606086015261198d8282611574565b91505060808301516119a2608086018261151f565b5060a08301516119b560a086018261151f565b5060c08301516119c860c086018261151f565b508091505092915050565b60006119df8383611930565b905092915050565b6000602082019050919050565b60006119ff826118f5565b611a098185611900565b935083602082028501611a1b85611911565b8060005b85811015611a575784840389528151611a3885826119d3565b9450611a43836119e7565b925060208a01995050600181019050611a1f565b50829750879550505050505092915050565b60006020820190508181036000830152611a8381846119f4565b905092915050565b7f4e487b7100000000000000000000000000000000000000000000000000000000600052602260045260246000fd5b60006002820490506001821680611ad257607f821691505b602082108103611ae557611ae4611a8b565b5b50919050565b7f43616e2774206164642063616e64696461746520616674657220656c6563746960008201527f6f6e207374617274696e67206461746500000000000000000000000000000000602082015250565b6000611b476030836116f6565b9150611b5282611aeb565b604082019050919050565b60006020820190508181036000830152611b7681611b3a565b9050919050565b7f43616e2774206164642063616e64696461746520746f20616e20656c6563746960008201527f6f6e20616674657220697420697320636f6e636c756465640000000000000000602082015250565b6000611bd96038836116f6565b9150611be482611b7d565b604082019050919050565b60006020820190508181036000830152611c0881611bcc565b9050919050565b7f4e487b7100000000000000000000000000000000000000000000000000000000600052601160045260246000fd5b6000611c49826112c4565b91507fffffffffffffffffffffffffffffffffffffffffffffffffffffffffffffffff8203611c7b57611c7a611c0f565b5b600182019050919050565b60008190508160005260206000209050919050565b60006020601f8301049050919050565b600082821b905092915050565b600060088302611ce87fffffffffffffffffffffffffffffffffffffffffffffffffffffffffffffffff82611cab565b611cf28683611cab565b95508019841693508086168417925050509392505050565b6000819050919050565b6000611d2f611d2a611d25846112c4565b611d0a565b6112c4565b9050919050565b6000819050919050565b611d4983611d14565b611d5d611d5582611d36565b848454611cb8565b825550505050565b600090565b611d72611d65565b611d7d818484611d40565b505050565b5b81811015611da157611d96600082611d6a565b600181019050611d83565b5050565b601f821115611de657611db781611c86565b611dc084611c9b565b81016020851015611dcf578190505b611de3611ddb85611c9b565b830182611d82565b50505b505050565b600082821c905092915050565b6000611e0960001984600802611deb565b1980831691505092915050565b6000611e228383611df8565b9150826002028217905092915050565b611e3b8261152e565b67ffffffffffffffff811115611e5457611e5361136c565b5b611e5e8254611aba565b611e69828285611da5565b600060209050601f831160018114611e9c5760008415611e8a578287015190505b611e948582611e16565b865550611efc565b601f198416611eaa86611c86565b60005b82811015611ed257848901518255600182019150602085019450602081019050611ead565b86831015611eef5784890151611eeb601f891682611df8565b8355505b6001600288020188555050505b505050505050565b6000606083016000830151611f1c600086018261151f565b5060208301518482036020860152611f348282611574565b9150506040830151611f49604086018261151f565b508091505092915050565b6000604082019050611f696000830185611327565b8181036020830152611f7b8184611f04565b90509392505050565b7f456c656374696f6e207374617274696e672064617465206d757374206265206960008201527f6e20746865206675747572650000000000000000000000000000000000000000602082015250565b6000611fe0602c836116f6565b9150611feb82611f84565b604082019050919050565b6000602082019050818103600083015261200f81611fd3565b9050919050565b7f456c656374696f6e20656e64696e672064617465206d75737420626520696e2060008201527f7468652066757475726500000000000000000000000000000000000000000000602082015250565b6000612072602a836116f6565b915061207d82612016565b604082019050919050565b600060208201905081810360008301526120a181612065565b9050919050565b7f456c656374696f6e20656e64696e672064617465206d757374206265206c617460008201527f6572207468616e207374617274696e6720646174650000000000000000000000602082015250565b60006121046035836116f6565b915061210f826120a8565b604082019050919050565b60006020820190508181036000830152612133816120f7565b9050919050565b7f4e487b7100000000000000000000000000000000000000000000000000000000600052603260045260246000fd5b7f566f74696e67206973206f6e6c7920616c6c6f7765642077697468696e20766f60008201527f74696e6720686f75727300000000000000000000000000000000000000000000602082015250565b60006121c5602a836116f6565b91506121d082612169565b604082019050919050565b600060208201905081810360008301526121f4816121b8565b9050919050565b7f4163636f756e742068617320616c726561647920766f74656420696e2074686960008201527f7320656c656374696f6e2e000000000000000000000000000000000000000000602082015250565b6000612257602b836116f6565b9150612262826121fb565b604082019050919050565b600060208201905081810360008301526122868161224a565b9050919050565b60008160001c9050919050565b6000819050919050565b60006122b76122b28361228d565b61229a565b9050919050565b600081546122cb81611aba565b6122d58186611539565b945060018216600081146122f0576001811461230657612339565b60ff198316865281151560200286019350612339565b61230f85611c86565b60005b8381101561233157815481890152600182019150602081019050612312565b808801955050505b50505092915050565b6000606083016000808401549050612359816122a4565b612366600087018261151f565b5060018401858303602087015261237d83826122be565b92505060028401549050612390816122a4565b61239d604087018261151f565b50819250505092915050565b60006040820190506123be6000830185611327565b81810360208301526123d08184612342565b9050939250505056fea2646970667358221220cb8d9b779eafa559b283edb304b61e9fe2a843fb26c94f35752636e1b91d956964736f6c63430008120033",
  "linkReferences": {},
  "deployedLinkReferences": {}
}